:10000000B0C20000CBC20000C9C200000C94F41DB5
:10001000C5C20000C3C20000C1C20000BFC20000D0
:10002000BDC20000BBC200000C94C8220C949423F3
:100030000C94A51CB3C20000B1C20000AFC2000006
:10004000ADC20000ABC20000A9C20000A7C2000000
:10005000A5C200000C941C1DA1C200009FC200009C
:100060009DC200009BC2000099C2000097C2000020
:1000700095C2000093C2000091C200008FC2000030
:100080008DC200008BC2000089C2000087C2000040
:1000900085C2000083C2000081C200007FC2000050
:1000A0007DC200007BC2000079C200000102E2753F
:1000B0000103E20102E1750103E1000102E27501C1
:1000C00003E20102E16F0103E1000102E2750103B5
:1000D000E20102E1610103E1000102E2730103E2D6
:1000E000000102E2750103E275000102E2750103FD
:1000F000E26F000102E2750103E2610014001A00E0
:1001000008001500170004221621072409280A2ACE
:100110001C431B000600190005002B422A000000AA
:10012000000000001D0018000C00120013000B3A24
:100130000D380E340F213332110010003600370015
:100140002D4328002C4100000000000038021E0250
:1001500054003100340237022F0226022F003400EF
:10016000360230022702300031022B002900000045
:1001700000000000230235023500540057008700BC
:100180002202250224025500380020021F0221020B
:1001900067002A39E641000000000000A9003A008B
:1001A0003B003C003D00AE003E213F0440084100C2
:1001B000AA00420043004400450001000100000085
:1001C000000000004600BD004B007B007C0050009A
:1001D000510052004F007D004A00BE004E004D000D
:1001E0007A0029002B00000000000000407E417EC4
:1001F000427E447E467EE100E000E200E300000033
:10020000340033002F0000000000012B010000002B
:100210000000000054005F006000610057005500BE
:100220005C005D005E005600620059005A005B00F1
:1002300067000100BD520000000000000100330211
:100240003602370233002F023002260227021F0235
:1002500001001E022F0030000100AA000100000072
:100260000000000001000100010001000100010088
:1002700000002E002E0222020100010001000100F8
:1002800001000100A90000000000000001000100C1
:1002900001000100010001000000E2010100010075
:1002A0000100010001000100010001000100000047
:1002B0000000000001004000410042004300010036
:1002C0003D003E003F00440001003A003B003C007E
:1002D000450001000100000000000000540024005F
:1002E00025002600570027001E001F002000560092
:1002F00055002100220023006700010001000000DA
:1003000000000000010001000100010001000100E7
:1003100001000100000001000100010001000100D6
:1003200001000100010000000000000001000100C8
:1003300033022900010001002202380028000100D8
:100340000100010001001E02010001002B0000005D
:100350000000000001000100010001004C004152BA
:10036000E300010001000100405201003634373142
:10037000007C000001000000000000000000000000
:10038000000000002A2B28000000000000000000F0
:100390000000000000000029000000002C1E342096
:1003A000212224342627252E362D3738271E1F20BC
:1003B0002122232425263333362E37381F04050601
:1003C0000708090A0B0C0D0E0F1011121314151645
:1003D0001718191A1B1C1D2F3130232D3504050643
:1003E0000708090A0B0C0D0E0F1011121314151625
:1003F0001718191A1B1C1D2F3130354C0000000036
:1004000000000000000000000000000000000000EC
:1004100000000000000000000000000000000000DC
:100420007E0F00D4FFFFFFC7000000781A034600CC
:10043000650072007200690073002000730077008D
:100440006500650070000000080344005000420091
:1004500000000403090409023B00020100A0FA099C
:1004600004000001030101000921110100012244DF
:1004700000070581030800010904010001030000D1
:1004800000092111010001227B00070582032000E1
:10049000011201000200000008ABC239390100015D
:1004A00002000105010902A10185020901A100055F
:1004B0000919012908150025019508750181020512
:1004C00001093009311581257F95027508810609DA
:1004D000381581257F950175088106050C0A3802BB
:1004E0001581257F950175088106C0C00501098029
:1004F000A101850319012AB700150126B70095014E
:1005000075108100C0050C0901A101850419012A9B
:10051000A002150126A002950175108100C00501F9
:100520000906A101050719E029E71500250195082D
:10053000750181029501750881010507190029FFE0
:10054000150026FF00950675088100050819012988
:100550000515002501950575019102950175039119
:1005600001C011241FBECFEFDAE0DEBFCDBF11E026
:10057000A0E0B1E0E2EAFCE402C005900D92A83CE4
:10058000B107D9F722E0A8ECB1E001C01D92A83C68
:10059000B207E1F70E94E5130C94EE2531CDFC0182
:1005A000DB0115968C91811511F1E054FE47E7307F
:1005B000F105F0F4E051FA4D60E00C944C2583EF26
:1005C00090E00E94051A80E008958AEE90E0F9CF4D
:1005D00081EE90E0F6CF89ED90E0F3CF8AEC90E0E9
:1005E000F0CF8BEB90E0EDCF8CEA90E0EACF81E0AA
:1005F0000895982F962B9830B8F44530A8F450E021
:1006000095E0699F400D511D112498E2899F400D8E
:10061000511D1124FA01EE0FFF1FE450FF4F859189
:100620009591282F822F089521E090E0FBCFE1CF14
:1006300008959C0191509F31B0F4832F817034FF55
:100640000AC08295807F31FD806232FD806433FF75
:100650000BC08068089531FD826032FD846033FFF5
:1006600003C08860089580E00895CF93DF93EB0185
:10067000E0DFFE010995DF91CF910895CF93DF93DD
:10068000EC01805E9109089720F061E677E0209701
:1006900011F462E675E0CE01E8DF8C2F85D1DF91A1
:1006A000CF910895CF93DF93EC01C1D1CE01805E4D
:1006B0009109089720F066E677E0209711F467E645
:1006C00075E0CE01D2DFDF91CF9108950F931F9394
:1006D000CF93DF938C01EB01D1DF209739F4C80170
:1006E000E1DFDF91CF911F910F9108958FE99FE096
:1006F0000197F1F700C000002197EFCF60E570E0AF
:100700008933910511F060E070E0E0CF81E0089559
:1007100081E00895FBCF089581E0089540CF0895CA
:1007200008950895FDCF089508950895A6E0B0E0D6
:10073000ECE9F3E00C94612549835A839E83309160
:10074000CF0189819A81311117C03E81311589F01D
:10075000211579F008D5182F682F89819A81E2D464
:1007600069817A81812F0E94920E2696E3E00C9493
:100770007D25E9D4182FF4CFF6D469817A81F3CF9F
:10078000FC01262F40815181628173818481958192
:10079000CDCFCF93DF93EC0161E0F2DFBE01B8DF94
:1007A000811529F061E0CE01EBDFBE01B3DFDF91FF
:1007B000CF9108950F931F93CF93DF93EC0160E0E7
:1007C000DFDF8C01BE01ADDFBE01C801ABDFDF9111
:1007D000CF911F910F9108950F931F93CF93DF93A4
:1007E000EC0161E0CDDF8C01BE0196DF811106C016
:1007F00080E0DF91CF911F910F910895BE01C80154
:100800008DDF8115A9F3BE01C8010E94081481156E
:1008100079F3BE01C8010E947F1A811549F3BE0118
:10082000C8010E94CE15811519F3BE01C8010E94AE
:10083000A5158115E9F2BE01C8010E94DA0F8115E4
:10084000B9F2BE01C8010E94EC0F811589F2BE0108
:10085000C8010E940610CDCF21E030E002C0220F77
:10086000331F8A95E2F7C90198C3CF93C82F81E05F
:1008700090E00C2E02C0880F991F0A94E2F70E94A4
:10088000AF0C8C2FE9DFCF91089581E0089581E0CE
:100890000895FBCF0895CF93C82F2ED38C2FF7DF69
:1008A0008C2FF7DFCF91089581E0F5DF0C94401D88
:1008B00080E0F1DF0C94511D37DF0E94391C17C016
:1008C00018D033DF0C943D1C81E008950895CF9338
:1008D000DF93D82FF9DFC82F811511F08D2FF6DFA8
:1008E0008C2FDF91CF9108950895F1CF089580E086
:1008F000FCCF0E94C61AF9CFCF930E94C61AC82F08
:100900008091CA018C1771F0C093CA010E94101D1A
:100910006093CB017093CC018093CD019093CE0175
:100920008C2FE3DFCF910895ADE0B0E0EAE9F4E089
:100930000C946225488759876A877B878C879D87B7
:10094000911122D71F8286E0FE0138969E012F5F0B
:100950003F4FD90101900D928A95E1F78D81811168
:100960000CC029813A814B815C816D817E818F81B0
:1009700053D62D96E2E00C947E25CE01019609DF38
:100980008111EFCFF6CFFC012481213019F4808151
:1009900091811CC40895611521F00E942A170C94BE
:1009A000DF170E946A17FBCFCF93C82F811581F004
:1009B0008450813A78F48C2F0E945F1B811521F0BE
:1009C0008C2F0E94A11B49D78C2F0E949B1B45D7BF
:1009D000CF9108958C2F805E883048F481E0C1FD6E
:1009E00084E0C0FD880FC2FD8295ACD6F0CF8C2F7D
:1009F000855A833030F48C2F8452990B0E94FD1A53
:100A0000E7CFEC2FE85AEB3150F4F0E0EE0FFF1F88
:100A1000E75AFE4F808191810E94241BD9CF8C2FF1
:100A20008D5C8331A8F661E08C2FB5DFD1CF8115C5
:100A300059F1982F9450913A18F40E94A11B0DC7B8
:100A4000982F905E983050F4982F81E091FD84E0CB
:100A500090FD880F92FD82957BD6F1CF982F955A05
:100A6000933020F480E090E00C94FD1A982F985A6F
:100A70009B3120F480E090E00C94241B982F9D5C27
:100A8000933110F460E087CF08951F93CF93DF93E5
:100A9000182FEB0189DF209731F4812FC8DFDF9118
:100AA000CF911F9108958FE99FE00197F1F700C062
:100AB00000002197F0CF60E570E0893311F060E02D
:100AC00070E0E3CF811511F03DD6C7C608958115BA
:100AD00011F03ED6C2C60895A0E0B0E0E2E7F5E02E
:100AE0000C945C256C01D62FC72FFC011581068163
:100AF00002950F701CD6E82E8115E9F0E12E111534
:100B0000D1F08C2F807F803461F08D2F805E883013
:100B1000E0F08C2F807E803221F4D230B0F00115CD
:100B2000A1F080919D0282FF10C082E0B2D6FFD575
:100B300091E08927E82EEC2FE295EF70C03C78F524
:100B4000F0E0E950FA4D0C944C25E12CF4CF0C2F39
:100B50000F70C03110F00295007F111581F0011562
:100B600049F08D2F805E883010F0D11105C0802FA4
:100B7000E9D573D68D2F40C0802FF8D5FACF8D2FB1
:100B800056DF011561F08D2F805E883010F0D11195
:100B900003C0802FDDD502C0802FEED55ED6E114D4
:100BA00009F4B3C0C0D580FDB0C0F6011582B5D53B
:100BB00024D2C60168D1B1D52ED2A7C08C2F8F7098
:100BC000F82EC07FC03219F0F29480EFF822D130B5
:100BD00038F079F1111509F438C00115C9F0CACF00
:100BE00080919D0282FD10C0111541F0F11419F0A1
:100BF0008F2DA8D532D680E0D7DED1CF80E017DFA9
:100C0000F11469F28F2DC6CF111551F0013018F48F
:100C10008F2D58DFC4CF09F0C2CF8F2DC9D5BFCFDC
:100C20000111BDCF8F2D53DF8F2DCDD58F2DB2D597
:100C3000B6CF111521F0063008F0B1CFE9CF05305D
:100C400008F0ADCF8F2D43DFAACF0115D9F3D933EB
:100C500049F48FEF97EE23E0815090402040E1F778
:100C600000C000008D2FE3DE9ACF8C2F86958695ED
:100C70008370813060F009F092CF8D2F9C2F93709C
:100C8000111102C080E090E00E94241B88CF8D2FBC
:100C90009C2F9370111102C080E090E00E94FD1A19
:100CA0007ECF612F8D2F77DE7ACF8C2F8370C1F5A9
:100CB000111128C04D2F429546954770440F440F9F
:100CC0002D2F2F7030E0042E02C0220F331F0A9404
:100CD000E2F780E090E0D4FF09C08FE090E002C02E
:100CE000880F991F4A95E2F780959095C695C6950D
:100CF000C370822B932BC23079F0C33079F0C130AE
:100D000049F054D10E94C61AF0DDCDB7DEB7E8E055
:100D10000C94782544D1F6CF50D1F4CF3ED1F2CF08
:100D2000111559F1C0FFEECF4D2F429546954770F2
:100D3000440F440F2D2F2F7030E0042E02C0220FDD
:100D4000331F0A94E2F780E090E0D4FF09C08FE0FF
:100D500090E002C0880F991F4A95E2F78095909520
:100D6000C695C695C370822B932BC23061F0C330F9
:100D700061F0C13031F074D1C5CF823008F4C2CFF8
:100D8000D3CF67D1BFCF73D1BDCF24D1BBCFCF706D
:100D9000111529F08C2F31D18D2F94DEB3CF8D2FEB
:100DA00096DE8C2F38D1AECFD23F31F168F4D03FF0
:100DB000C1F0D13F89F0111509F43EC0011509F4C5
:100DC00038C08D2FF1DD9ECFD33FE1F0D43F99F7AE
:100DD00080919D0282FD1EC08C2F8F71111511F321
:100DE0000FC0111539F0053008F08CCF8C2F8F71A2
:100DF00022D188CF0630F8CF8C2F8F711111D2CF2E
:100E0000FCD080CF111521F08C2F8F71EDD07ACFCF
:100E1000E8D078CF111529F063E08C2F8F7122D59F
:100E200071CF81E036D5023008F46CCF82E031D545
:100E300069CF8C2F8F71E4CF011571F0D93349F44C
:100E40008FEF97EE23E0815090402040E1F700C003
:100E500000008D2FECDD56CF8C2F8F71A3CF0F9319
:100E60001F93CF93DF93EC01688179818D81B7D196
:100E70008C0104D191D0B801CE012EDEDF91CF914B
:100E80001F910F910895CF93DF93EC018C81811511
:100E900081F0CE01A1DC81110FC049D4811549F048
:100EA0008D81811531F080919D0282FF02C082E028
:100EB000F0D4DF91CF910895CE01D1DFCE017ADC5D
:100EC000F8CF811511F052D4C8C40895811511F0DE
:100ED00053D4C3C4089580E090E00E94FD1A80E0DE
:100EE00090E00E94241B50D4B8D40E94F8170C94B0
:100EF000DF170E94A71BEFCF36D4FBCF282F929588
:100F00009F70963099F060F4925F9F70923030F449
:100F1000203FB1F038F481E0283E38F080E00895B9
:100F20009A5FF3CF81E0243FC9F7089591E0813FB4
:100F300009F090E081E0283E08F080E0892B0895D8
:100F400081E00895FC012481211521F080819181A7
:100F50003DD1D4CF80E00895A6E0B0E0E2EBF7E029
:100F60000C9462252696E2E00C947E25A7E0B0E082
:100F7000ECEBF7E00C9462252796E2E00C947E25DA
:100F80000895FECF0895FDCF0895FADFFCDF80932A
:100F9000E6019093E70108950895F7CF0895209111
:100FA000E6013091E701822B932BEFCF2091E601F0
:100FB0003091E70182239323E8CF2091E60130911D
:100FC000E70182279327E1CFDBCF0895FDCF089576
:100FD000D7CF0895FDDFFADF8093E4019093E50118
:100FE000089580E090E0F6CF21E030E002C0220FCB
:100FF000331F8A95E2F7C901EDCF21E030E002C04E
:10100000220F331F8A95E2F78091E4019091E50168
:10101000822B932BDFCF21E030E002C0220F331F61
:101020008A95E2F7209530958091E4019091E50151
:1010300082239323CFCF21E030E002C0220F331F61
:101040008A95E2F78091E4019091E5018227932748
:10105000C1CF2091E4013091E501822B932BBACFCF
:101060002091E4013091E50182239323B3CF2091B5
:10107000E4013091E50182279327ACCF0895CF9307
:10108000C1E061FDC4E060FDCC0F62FDC29593E05C
:10109000769567959A95E1F7660F771F660F771F2C
:1010A000460F571FFA0140E050E090E06191DF01E8
:1010B0009C01042E02C0369527950A94E2F72695E6
:1010C000220B26272C2326272E934F5F5F4F443079
:1010D000510561F7CF910895A82FA77023E0969549
:1010E00087952A95E1F7880F991F880F991F680F38
:1010F000791FFB0140E050E080E0219130E00A2EB2
:1011000002C0369527950A94E2F72170042E01C09B
:10111000220F0A94EAF7822B4F5F5F4F443051054C
:1011200061F70895262F983068F4853058F4682FB9
:1011300070E085E0989F600D711D112440ED51E035
:10114000822F9DCF0895292F983058F4853048F488
:1011500090E060ED71E035E0239F800D911D11243A
:10116000BBCF80E00895CF92DF92FF920F931F9341
:10117000CF93DF936C010091E4011091E501809120
:10118000E6019091E701082B192BCFE0D0E081E038
:1011900090E00C2E02C0880F991F0A94E2F780237A
:1011A0009123892B61F4219790F7F12C8F2DDF91FA
:1011B000CF911F910F91FF90DF90CF900895FC2E5B
:1011C000B6018C2FBAD5019771F3F0CFCF93DF938F
:1011D000EC01C9DFBE01B1D5DF91CF9108951F9316
:1011E000CF93DF93EB019091CF01911531F0CB01BB
:1011F000EDDFDF91CF911F910895811551F0CB0163
:10120000B2DF182F682FCE018DDFBE01812F95D55B
:10121000F0CFCB0198DF182FF8CF0F931F930091D9
:10122000E8018091E901801303C01F910F91089597
:1012300087E0089FF0011124E651FE4F20813181A3
:101240004281538164817581868190DE0F5F1F4FDB
:101250000770E7CF209122023091230240912402AF
:1012600050912502609126027091270280912802F8
:101270007DCE80912802803170F480912702811503
:1012800051F0E091E8012091E90130912302409171
:1012900022022E1301C00895BF0187E0E89FF001EC
:1012A0001124DF01A651BE4F14968C91149781151D
:1012B00049F111968C911197831324C08C9184135A
:1012C00021C015968C91159781111CC012968D9195
:1012D0009D91A0912402B09125028A1B9B0B883C12
:1012E000910580F4809128028F708061809328029C
:1012F000E051FE4F80818F708061808382E292E0B6
:10130000C2DD8BCF6F5F7F4FFB01E770C2CFE091F3
:10131000E8019091E901E91302C080E008959F017E
:1013200057E0E59FF0011124E651FE4F518156131D
:1013300006C05081581303C05581541305C02F5F58
:101340003F4FF901E770E7CF81E008958F929F92B8
:10135000AF92BF92DF92EF92FF920F931F93CF93C2
:10136000DF93CDB7DEB72D970FB6F894DEBF0FBE73
:10137000CDBF8C0186E0F801DE01189601900D9238
:101380008A95E1F7F801F580848192E2892E92E056
:10139000992E90912602911117C0811509F4EFC082
:1013A000F11409F42EC1C801CDDD811509F429C15C
:1013B00087E0F801D40101900D928A95E1F7C4010C
:1013C000E2DA57DF47DFDBC0E080A280B380D09055
:1013D00027022091240230912502A501421B530BC4
:1013E000D11409F4CFC0483C510508F09EC08115C6
:1013F00009F4C5C090912302918080912802803128
:1014000008F065C0991226C0909122029E1122C058
:10141000F11057C08F708061809328021BDF82E239
:1014200092E031DD80912802F8018683F12C8F2D26
:101430002D960FB6F894DEBF0FBECDBFDF91CF91D2
:101440001F910F91FF90EF90DF90BF90AF909F9012
:101450008F900895F11035C040E0692D8E2D57DF33
:1014600040E0692D8E2D53DFF82E8111DFCF888566
:101470009985ACDE292F22952F70903450F49F70FF
:10148000223078F0911591F0F8019681903170F446
:10149000CECF2A5F2F70223070F0C801F4DCFD2C13
:1014A000C6CF911519F0811509F4C1CF805E88303F
:1014B00008F4BDCFF2CF803F08F4B9CF815F83300D
:1014C000F7CF80912802816080932802AFCF9912D4
:1014D00007C0909122029E1103C0F11409F473C059
:1014E000C80130DD811509F48CC0F11409F489C0FC
:1014F00080912802803280F02091220230912302D4
:1015000029833A83AB82BC82909126029D831E82FE
:101510008F83CE010196B7DC87E0F801A2E2B2E04A
:1015200001900D928A95E1F74CCF9091280290316D
:1015300088F4488559856A857B858C859D850CDD79
:1015400082E292E0A0DCF40187E011928A95E9F74B
:1015500081DE6CCF811599F02091230281812813BF
:10156000BFCF809122028E11BBCFF110B9CF9683ED
:10157000C80189DCF40187E011928A95E9F7FF241C
:10158000F39455CF483C510508F03EC08115B9F39E
:10159000F114B9F1909123028181981329C08091AF
:1015A00022028E1125C08091280280FD18C0803152
:1015B000B0F08683807F803F39F08681982F907FBE
:1015C000905F8F70892B8683C8015DDC87E0F8010E
:1015D000A2E2B2E001900D928A95E1F7F3CE87E0A6
:1015E000F801A2E2B2E001900D928A95E1F7C7CF2F
:1015F000C801A8DC811190CF80912802816080937E
:101600002802C80140DCBBCF488559856A857B85A7
:101610008C859D85A1DC97CFAEE0B0E0E2E1FBE0F8
:101620000C946125288739874A875B876C877D877B
:101630008E87CE0108968ADE6C85811599F061153A
:1016400039F0288539854A855B857D858E858EDCD8
:101650008091E8019091E90189133DC02E96E3E065
:101660000C947D2587E09E01285F3F4FF9012750AC
:101670003109D90101900D928A95E1F7611541F385
:10168000A091E9018A2F90E08395877090E0AC01EA
:101690002091E8012417150691F097E09A9FD00158
:1016A0001124A651BE4F9E012F5F3F4FF9010190BB
:1016B0000D929A95E1F74093E901AFDDC9CF1CDCAB
:1016C0001092E9011092E801E2E2F2E087E0119263
:1016D0008A95E9F7BDCF17E0189FC0011124865104
:1016E0009E4F34DE811509F4B9CFE091E8011E9FC9
:1016F000F0011124E651FE4F208131814281538156
:1017000064817581868132DC8091E8019091E901E4
:10171000019687708093E8019BCF80913102869576
:1017200086958695089580913102877008959091ED
:101730003102977081E0911101C080E0089580919D
:101740003D02089590913D02982B90933D0208959B
:101750008095982F80913D02892380933D020895C2
:1017600080933D02089510923D02089590913C02AD
:10177000982B90933C0208958095982F80913C027D
:10178000892380933C02089510923C0208950895A5
:10179000FECF089590913202292F282329F08095B9
:1017A000892380933202F4CF08950895FECF0895DF
:1017B00090913302292F2823281721F0982B9093FA
:1017C0003302F4CF089590913302292F282329F072
:1017D0008095892380933302E9CF08958091330265
:1017E000811521F01092330280E0E0CF08950F932D
:1017F0001F93CF93DF9380910001909101018C01A1
:10180000C0913D0280913C02C82B8091330281152A
:1018100029F0C82B0E944B1B8111E0DFF801C08327
:10182000C0910001D091010148E050E069E272E00E
:10183000CE010E949D25892B59F088E0FE01A9E286
:10184000B2E001900D928A95E1F7CE010E94DE1A76
:10185000DF91CF911F910F910895C9CF08950895F9
:10186000FECF089590919D0292FF0EC0982F990F80
:10187000990F990F962B90933102BFDB8091310223
:10188000869586958695ECCFB8CB1092310280E094
:10189000E7CF909131028095892380933102282FE0
:1018A000277059F4891749F090919D0292FF05C065
:1018B000869586958695AFDBE8CF089590919D0239
:1018C00092FB222720F9281749F080FB92F9909388
:1018D0009D028CE992E047D082E0DBCF08958091B1
:1018E0009D02002482FF0394802DE8CF81E0E6CFA3
:1018F00080E0E4CF80E090E0BC0100C480E090E0B4
:10190000BC01F6D3F7CFA4E0B0E0E9E8FCE00C942A
:10191000622596D3A1D31C82CE010496B4D381E074
:1019200090E08093E6011092E701B9D3198284E137
:101930008A83CE010196C4D31B82CE010396D2D3F3
:10194000DDDF2496E2E00C947E25DDCF08958AC386
:10195000089577C308958CC308959BC308959FC3CA
:101960000895A2C30895ACC30895B1C30895BAC33E
:101970000895CAC30895A6E0B0E0E1ECFCE00C9441
:1019800060250E94041D8C0180913E0290913F02CF
:101990008017910779F019821A820E94041DBC01F8
:1019A00049815A8180E090E00E94940400933E02B5
:1019B00010933F022696E4E00C947C25DDD26093E0
:1019C00044027093450280934602909347026093CD
:1019D0004002709341028093420290934302089523
:1019E00008950895FDCF08950895FEDFFBCF089573
:1019F000FECF08950895FEDFFBCF81E0089588EDC6
:101A00009FE0F4D6EEDFF1CF02C508950895089562
:101A10000895FCDFFCDFFCCF9CDF811101C095DF66
:101A200088E492E098DF8CE992E09BDF0E948915C0
:101A300094DFB3DA8091E4019091E501C7CA0E9476
:101A4000FB1C71D2E9D420D4E7DF0E94C41A0E94A3
:101A5000740426D70E948B15ECD4CDCFD8D4811135
:101A60000C94C51A0895A6E0B0E0E9E3FDE00C94FB
:101A70005925C3DF81110AC07EDFF0DF0E941918EB
:101A80000E947C042696EBE00C94752537D484E9FB
:101A9000A82E82E0B82E750110E0F7010081812F99
:101AA0003ED31F5F183009F445C09FEFE91AF90AC9
:101AB000081799F38091480281FD37D3A5DF982E4E
:101AC00010E0812F2CD3F82EF50181915F01F816DB
:101AD00061F18F25D82E00E0EE24E3948D2D8E2128
:101AE000F1F0CC24C3948F2D8E2109F4C12C9114D4
:101AF00089F0602F812F0E945F1C81110BC0098328
:101B00001A830E94041DBC0149815A8181E09C2DE9
:101B10000E9494044C2D602F812F0E94731C0F5F34
:101B2000EE0C0530D9F6F501F2921F5F183049F638
:101B300045DFA3CF0813BECF9FCF0F931F93CF9343
:101B4000DF93FDD0EC01D23508F050C0D03508F05D
:101B5000C8C0C03ED10530F5CD3CD10508F09DC0D0
:101B6000C83AD10578F4C53AD10508F093C0C13020
:101B7000D105B1F1CE010497813A910588F1C0E019
:101B8000D0E02EC0CE01885A91094B97C0F7C85AB1
:101B9000D0E0CC0FDD1FC157DE4F0990D881C02D9A
:101BA000D4641EC0D034A8F4D03208F0ADC0C83E12
:101BB000D105B0F0CE0191509F3108F78D2F62D141
:101BC000082F8C2F90E0BBD0D02FDF71C82FD92BDE
:101BD00007C08C2F90E0B3D0DF70C82FD92BD06A0C
:101BE000CE01DF91CF911F910F910895C03882E50A
:101BF000D807B8F5C03682E5D80708F056C0C0341B
:101C000082E5D807C8F4C03282E5D80708F047C09B
:101C10008C2F8695869520E2829FC0011124C37087
:101C200021E030E002C0220F331FCA95E2F7E9013C
:101C3000C82BD92BDD68D4CF8C2F869586958770DD
:101C400020E2829FC0011124C37021E030E002C075
:101C5000220F331FCA95E2F7E901C82BD92BDC68A4
:101C6000BFCFC03C82E5D80750F48C2F8F71C03AAB
:101C7000D24580F5982F84EF906AEC01B1CFCE0168
:101C8000805C9245809708F07ACFDC2FDF71C0EF3F
:101C9000D06AA6CFA497D064A3CFD065A1CF8C2F54
:101CA0008F71D82FC1EFD06A9BCF8C2F86958695E8
:101CB000877020E2829FC0011124C37021E030E0D0
:101CC00002C0220F331FCA95E2F7E901C82BD92BB6
:101CD000DA6886CFD7D0982F80E09F71EC01D06270
:101CE0007FCF8C2F8F71CED053E0CC0FDD1F5A9554
:101CF000E1F7DF70282F84FF04C090E1899F9001F5
:101D00001124C22FD0696CCF8D2F8F71BBD0082FBB
:101D10008C2F90E014D0302F3F71282F392B306258
:101D2000E9015ECF462F783028F4653018F4672F2C
:101D30000C94170380E090E00895F4DFFECE803E1F
:101D40009105D1F1C8F48133910509F481C048F4BB
:101D50008932910509F471C08A32910509F47FC076
:101D6000089589339105E1F082389105C9F08533F2
:101D7000910509F45DC00895843E9105D1F148F4C0
:101D8000823E910531F1833E910541F181EE90E073
:101D90000895863E9105C1F1873E9105F1F10895C0
:101DA00020919C02237009F064C020919D0223FFC2
:101DB00014C089E290E0089520919C0220FD45C066
:101DC00030919D0230FF09C024FD24C083EE90E0D5
:101DD000089520919C0222FDF7CF089520919C0246
:101DE00022FD44C030919D0230FD43C024FFF5CF59
:101DF00011C020919D0221FFF0CF80919C0284FDB3
:101E000009C087EE90E0089520919C0223FFE5CF62
:101E100024FFF7CF80E090E0089520919C0223FDFD
:101E20002BC030919D0231FFE1CF84EE90E0089508
:101E300020919C0225FFD1CFBCCF20919C0225FD93
:101E40001EC020919D0223FFC8CF89E390E0089532
:101E500020919C0226FFC1CF8AE290E00895209154
:101E60009C0226FFBACF81E390E0089582EE90E0D5
:101E7000089580EE90E0089586EE90E0089585E361
:101E800090E0089590919C0292FF10C041E0282FAD
:101E90002471243009F040E031E0282F28712830E7
:101EA00009F030E0431711F02CE0822793FF10C0B7
:101EB00041E0282F2471243109F040E031E0282F3F
:101EC0002871283109F030E0431711F02CE0822707
:101ED00030919D0230FF10C051E0282F2171213038
:101EE00009F050E041E0282F2871283009F040E047
:101EF000541711F029E0822731FF10C041E0282F4C
:101F00002171213109F040E031E0282F287128317A
:101F100009F030E0431711F029E0822794FF02C056
:101F200083FD877E089510929E0210929F02109268
:101F3000A0021092A1020895EF92FF920F931F93B7
:101F40007B018C0164D2811112C00E94101D970187
:101F5000A801261B370B480B590BC901DA018093E6
:101F60009E0290939F02A093A002B093A1021F91A2
:101F70000F91FF90EF9008954AD2811541F00E9491
:101F8000101D462F572FBC01CB01BA0108950E94A6
:101F9000101DDC01CB0140919E0250919F02609187
:101FA000A0027091A102480F591F6A1F7B1FECCF3E
:101FB00080E00895CF939C01205E3245C1E020323D
:101FC000310538F4FB01C581C11103C08F710E9436
:101FD00035048C2FCF9108959C01FB0185818115DB
:101FE00099F02B359CE7390769F02C359CE73907C8
:101FF00021F02A353C4721F0089571DC80E00895F6
:1020000075DCFCCF75DCFACF81E008959C01FB0103
:102010008581811599F021309CE7390761F02330E3
:102020009CE7390739F021153C4749F40E945404D4
:1020300080E008958CDC0E945804FACF81E0089576
:10204000089580E090E00E94BB259C0181E0233E42
:102050003E4F09F080E0089563EE7EEF80E090E06F
:102060000C94DA256FEF7FEF80E090E00C94DA2596
:10207000CF93DF93EC0182E090E00E94B325888348
:10208000DF91CF910895FC01608182E090E00C9493
:10209000C02583E090E00E94B32590E00895682F6A
:1020A00083E090E00C94C025CF93DF93EC0184E0B3
:1020B00090E00E94BB2588839983DF91CF9108959A
:1020C000FC016081718184E090E00C94DA25CF936B
:1020D000DF93EC018CE090E00E94B3258883DF91D0
:1020E000CF910895FC0160818CE090E00C94C025B4
:1020F000AB01BC018FE090E00C94D225AB01BC0198
:1021000083E190E00C94D225682F8EE090E00C944F
:10211000C0250895FECF08950895FECF0895E82FB5
:10212000F0E0E555FD4F8081089508950895FECFB4
:102130000895A4E0B0E0EFE9F0E10C945F2567D1E9
:10214000F82E8091B30290E085559D4FF114D9F19E
:102150008E010F5F1F4FF80124E011922A95E9F7D5
:10216000B80173D18115B1F08091A20290E044E0F2
:1021700050E0B80185559D4F0E949D2521E0209398
:102180004902892B91F4F12CC8DF8F2D2496E5E0CC
:102190000C947B25809149028115A9F3F80184E014
:1021A00011928A95E9F710924902E091A202F0E0BB
:1021B000E555FD4F89819A81AB81BC8180839183F4
:1021C000A283B383E1CF2091A20230E0BC01C90118
:1021D00085559D4FC5D1ABDFD8CF0F931F93CF93BC
:1021E00022E031E061E0D90140E050E08D918F3F85
:1021F00099F0E82FE295EF70F0E0C1A18F70062F03
:1022000001C0000F8A95EAF7902F90959C2391A327
:1022100092A1802F892B82A34F5F5F4F45305105DC
:1022200029F72B5F3F4F81E026313807E1F6CF9148
:102230001F910F910895CF93AC0185E0689FD00165
:102240001124AE5FBE4F70E0C1E080E09D919F3FE2
:1022500079F0E92FE295EF70E05EF0E0208130E068
:102260009F7002C0359527959A95E2F79C2F20FD27
:1022700090E0892B7F5FCC0F753041F7460F511DE1
:10228000FA018083CF910895A4E1B0E0EAE4F1E19E
:102290000C946225B9D0811113C084E1E5E4F1E02A
:1022A0009E012F5F3F4FD90101900D928A95E1F772
:1022B00084E1F901A2E0B1E001900D928A95E1F785
:1022C000A3D091E08927880F880F8093B30294E010
:1022D000981B9093A20281DFEBEAF2E088E0119272
:1022E0008A95E9F7E3EAF2E088E011928A95E9F746
:1022F00045D010DF6496E2E00C947E25A8E0B0E0C3
:10230000E4E8F1E10C945F25FE013196DF0188E0FD
:102310001D928A95E9F710E00E2FFF2E612F802F76
:102320009F2D89DF812F8F5F182F8430B9F748E008
:1023300050E0602F7F2D83EA92E00E949D2541E0CE
:10234000892B91F440E06091B30270E065557D4FB8
:1023500083EA92E014D0182FECDE912F982B892F6E
:102360002896E5E00C947B2588E0E02FFF2DA3EA7A
:10237000B2E001900D928A95E1F7E5CF0895EF92D2
:10238000FF920F931F93CF93DF938C017B01C42F98
:10239000411579F081E080934C020E94041D8093E6
:1023A0004A0290934B0280E0CDB7DEB7E6E00C9492
:1023B0007A25D0914C02D115B1F380914A029091C7
:1023C0004B020E94831C059770F344E050E0B80173
:1023D000C7010E949D25892B41F084E0F801D701B7
:1023E00001900D928A95E1F7CD2F10924C028C2F1F
:1023F000DBCFCF930E942C25C82F811102C00E94F1
:1024000028258C2FCF9108958091500208958091B6
:102410004F020895FCCF0895ECDF80934F02FADF5E
:1024200080935002F1DF80931601F1DF811140C0EB
:102430000895EDDF811101C03EC0089581E09091C3
:1024400051029A3008F080E008950F931F93CF93C4
:10245000DF93EC018B01809151028A3080F4B80146
:10246000CE017CD0811121C0809151028F3FB1F407
:102470000E94041D80934D0290934E0209C08091EA
:102480004D0290914E020E94831C843F914038F788
:1024900080E0DF91CF911F910F9108958F5F80931E
:1024A00051028A3028F781E0F4CF10925102FBCF1D
:1024B0000C94B01D08950C94B31D0895CF92DF9233
:1024C000FF920F931F93CF93DF936901E801082FC9
:1024D000880F110B41155105B1F0F80133E0EE0FF3
:1024E000FF1F3A95E1F7E95EFE4F818192818E5A96
:1024F0009D4FE0812E2F30E04E17510508F49A01D0
:10250000A9010E94AA25C8010E94911EF82E8115DA
:10251000E1F02097D1F0C80123E0880F991F2A9598
:10252000E1F7FC01E95EFE4F2381422F50E0C21724
:10253000D10508F4AE01895E9E4FFC01648175816E
:102540006E5A7D4FC6010E94AA258F2DDF91CF9133
:102550001F910F91FF90DF90CF900895EDC00895E7
:1025600000C10895A4E0B0E0E8EBF2E10C9460252E
:1025700060916702709168028091690290916A028D
:102580000E948C1C11E0643671058105910508F1EB
:10259000F3DCDC01CB010296A11DB11D89839A8376
:1025A000AB83BC8300E010E0980144E050E0BE0142
:1025B0006F5F7F4F82E082DF182F811551F00E94FC
:1025C000101D609367027093680280936902909374
:1025D0006A02812F2496E4E00C947C25A5E0B0E00B
:1025E000E4EFF2E10C945A255B01E090C501F09014
:1025F000C60101E010E0CE0105969C0140E050E0EC
:10260000BA0180E05BDF182F811509F446C067012D
:102610008FEFC81AD80A60916302709164028091AA
:102620006502909166020E948C1C643671058105DA
:10263000910560F104E010E09E012F5F3F4F40E004
:1026400050E0BA0181E03ADF182F64E070E0C60183
:1026500063D29D8198132CC0111551F10E94101D59
:1026600060936302709364028093650290936602A4
:1026700089819A81AB81BC8180935F0290936002D3
:10268000A0936102B093620281E013C064E070E045
:10269000C60142D29D818913CDCFF70181819281FC
:1026A000A381B48189839A83AB83BC831111E0CF6A
:1026B00080E040915F0250916002609161027091F0
:1026C0006202F50140835183628373832596EAE0B9
:1026D0000C947625A0E0B0E0E0E7F3E10C945A25F5
:1026E0007C016B015A01AADE0AE010E0811102C0F0
:1026F00001E010E0C1E0D0E0B601C701F5010995A5
:10270000811115C021960C171D078CF0CC9F9001EC
:10271000CD9F300D300D112480E090E045E34A95C7
:10272000F1F70000019682179307C1F7E5CFCDB707
:10273000DEB7EAE00C9476250F931F93CF93DF93D7
:10274000EC018B014EEE52E1C5DF811529F042EB21
:1027500052E1B801CE01BEDFDF91CF911F910F9101
:102760000895CF93DF93C091C501D091C601CE01EA
:10277000019624E0FB01DC0101900D922A95E1F71E
:1027800064E070E0C9D188838D819E81AF81B88576
:1027900040915B0250915C0260915D0270915E021B
:1027A00084179507A607B70759F080935B029093AB
:1027B0005C02A0935D02B0935E02BC01CD01BCDB64
:1027C000DF91CF9108954FC908950E949E1C0E94E9
:1027D000212015D90E94392032D90E9442200E941E
:1027E0004520F1DF0E945B2014D9F9CF8093C80106
:1027F0009093C9010895FB012581211539F097FFB8
:1028000005C09F77BC0180E090E018D181E0089579
:102810000F931F93CF93DF93EC018B01FB01858115
:10282000811581F00E949F0B8272FE01E053FC47EC
:10283000E830F10538F4ED5FF94D0C944C25811525
:1028400059F040D0B801CE01D6DFDF91CF911F9172
:102850000F9108958115A9F334D0F4CF80E026D0EC
:10286000F1CF81E0FCCF82E0FACF83E0F8CF84E0C3
:10287000F6CF85E0F4CF9091B502923069F48A30BA
:1028800048F4875F90E06AE070E00E943925875A3B
:102890000C945B058650FCCFAFC50895FECF08951C
:1028A00085EB92E062D88091B502F8CFCF93C82F24
:1028B0008093B50285EB92E05AD88C2FEFDFCF9151
:1028C00008950895089578D68093B4029091B50242
:1028D000913029F481FF03C089E30E945B050E94C7
:1028E0009F0B8093B6020E94B30B0E94C40B809191
:1028F000B5028230B9F030F481110FC082EE0E942F
:10290000D40404C0843011F1853029F18FE39CE9AF
:102910000197F1F700C00000089588E193E00E945C
:102920007E03F4CF8091B40280FD03C083E50E9452
:102930005B0582EE0E94D4048FE39CE90197F1F7D6
:1029400000C0000087E50E945B05E0CF86EE0E9494
:102950005B0588E1F8CF8BE191E00E947E0385E280
:1029600090E00E947E0388E290E0D9CF8091B5028A
:102970008230D1F030F481110CC082EE0E94170534
:1029800004C08430D1F08530D1F08091B6020C942F
:10299000B00B8CE20E945B058091B40281FFF5CF01
:1029A00089E30E945B05F1CF82EE0E9417058091BA
:1029B000B40280FDEACF83E5F4CF88E2F2CF88E26B
:1029C00090E00E947E03E1CFA0E0B0E0EAEEF4E107
:1029D0000C945A255B016C01D091B5028CE1E82E74
:1029E000F12C07E010E021E0C501D6010E2C04C057
:1029F000B695A795979587950A94D2F7C82FCF706B
:102A0000211531F0D43041F4CA3030F080E033DFAA
:102A10008C2F31DF20E005C0C111FACF0430110541
:102A2000BCF30150110984E0E81AF1080F3F1007C8
:102A3000D9F6CDB7DEB7EAE00C947625CF92DF92D7
:102A4000EF92FF926B017C0181E1E816F10438F40A
:102A50000E2C0F2849F08091B502823049F4FF9086
:102A6000EF90DF90CF9008952EDFB601C70121C00F
:102A70002ADF8091B5028111F8CF81E0E81AF108D0
:102A80008D2D9E2DAF2DB0E0A69597958795A69597
:102A9000979587959852AF4FBF4FBC01CD0194DFFA
:102AA00083E0D822E12CF12CB601C70174528F4F7C
:102AB0009F4F8ADF5BDFD3CF0C94A70C0895CF9391
:102AC000A3DC91E08927C82FCC0FCC0F8C2F27DBFC
:102AD00021E030E002C0220F331FCA95E2F790E0F8
:102AE0002823392381E0232B09F480E0CF91089536
:102AF00005DC8FEF96E721E0815090402040E1F720
:102B000000C00000FBDBDBDF811511F0D5DFB8C7AB
:102B10000895EECF08950895FC01680F791F8FEF97
:102B200041E3E617F70709F408959191892728E012
:102B300030E0982F990F87FF06C0892F84272150F6
:102B40003040B9F7EECF892FFACFCF93DF93EB0167
:102B500086319C4709F50E949F0B9D81911599F044
:102B60008A7A91E0811101C090E090936B02811507
:102B700041F085E3E0D50E942D0C80E0DF91CF91FC
:102B8000089589E2F7CF80916B02811519F085E3F2
:102B9000D8D5F1CF89E2FCCF81E0F0CFCF93DF939E
:102BA000EC01FB018581811509F4CBC09E013057F2
:102BB0002332310508F0ABC08CE992E00E94B10CE1
:102BC000FE01E150F047E232F10520F4E55FF94DF6
:102BD0000C944C2580919C02816080939C0290C053
:102BE00080919D02886080939D028AC080919C02A2
:102BF0008260F3CF80919C028460EFCF80919C0231
:102C00008860EBCF80919D028160EDCF80919D0225
:102C10008260E9CF80919C028061DFCF80919C022D
:102C20008062DBCF80919C028064D7CF0E947C07BA
:102C300080919C028068D1CF80919C028C60CDCF26
:102C400080919D028360CFCF80919C028E7FC5CF03
:102C500080919D02877FC7CF80919C028D7FBDCFE1
:102C600080919C028B7FB9CF80919C02877FB5CFEA
:102C700080919D028E7FB7CF80919D028D7FB3CFD3
:102C800080919C028F7EA9CF80919C028F7DA5CFE1
:102C900080919C028F7BA1CF0E947C0780919C0237
:102CA0008F779BCF80919C02837F97CF80919D02ED
:102CB0008C7F99CF90919C02892F8B7F92FF8460AB
:102CC000877F92FF886089CF80919D02982F909591
:102CD00090FB80F990FB81F986CF90919C02892F1F
:102CE0008F7B96FF806479CF0E947C0790919C0235
:102CF000892F97FB87F9805870CF81E00E94B90C2B
:102D00008CE992E00E94B30C0E947C0780E0DF9186
:102D1000CF91089580E0F2CF90919C02892F8F7E11
:102D200094FF80615ACF90919C02892F8E7F90FFF3
:102D3000816053CF90919D02892F877F93FF886098
:102D400052CF81E0E4CF382F25EB3203C0011124AC
:102D500097FF04C080589109892F089580589F4F8C
:102D6000FBCF8091720280FF0DC06091340170E052
:102D7000660F771F6038710588F56115710581F15F
:102D8000862F089581FF07C06091340184E0689F19
:102D9000B0011124EFCF82FF04C06091340188E0BC
:102DA000F6CF909171029115B9F060913301809145
:102DB0003401961728F098E0899FB0011124DACFEA
:102DC000899FC001112423E0880F991F2A95E1F7FC
:102DD00070E00E943925CECF68E0D2CF8FE708950A
:102DE00081E008958091720280FF0CC060913001F3
:102DF00070E075956795759567956115710541F159
:102E0000862F089581FF06C06091300170E07595AE
:102E10006795F3CF6091300182FD0BC090917002F5
:102E20009115A1F060912F0180913001961738F033
:102E3000682F70E06038710500F38FE70895899F6F
:102E4000C001112470E00E943925F4CF61E0D8CF91
:102E500081E00895E82FED5CE33198F5F0E0E35D63
:102E6000F94D0C944C257DDF819580937602089571
:102E700078DFFBCF76DF819580937502089571DF4F
:102E8000FBCFB0DF809377020895ACDF8195FACF56
:102E9000A9DF8195809378020895A4DFFBCF815D3F
:102EA000990B21E001C0220F8A95EAF78091740204
:102EB000822B8093740208958091720281608093C6
:102EC00072020895809172028260F9CF809172023D
:102ED0008460F5CF409175028D3C59F48091760263
:102EE00087FF0DC010927602411559F410927102BD
:102EF00008C08E3C81F48091760218169CF341152F
:102F000081F08091770290917802892B09F056C068
:102F10001092700208958F3C41F447FFF0CF109259
:102F20007502809176028115E0CF803D19F4141668
:102F3000B4F3E5CF90917702893D29F41916FCF698
:102F400010927702DCCF8A3D19F497FFD8CFF8CFE3
:102F5000909178028B3D29F497FFD1CF109278029F
:102F6000CECF8C3D19F41916CCF3C9CF982F915DB3
:102F7000983078F4815D990B21E001C0220F8A9589
:102F8000EAF7822F809590917402892380937402CE
:102F9000B6CF8D3D31F4809172028E7F80937202A4
:102FA000AECF8E3D21F4809172028D7FF7CF8F3DA1
:102FB00009F0A5CF809172028B7FF0CF089524D5C0
:102FC0009C019091750280917602982B21F02093BC
:102FD0006E0230936F029091770280917802982B65
:102FE00021F020936C0230936D0283E792E0F3C2EC
:102FF000E3E7F2E086E011928A95E9F71092710218
:1030000010927002109272020895FC018281811167
:103010000EC0838181110BC08481811108C091E0B1
:103020008581811101C090E0892F8170089581E030
:10303000FCCFA6E0B0E0EFE1F8E10C945F2586E07C
:10304000E3E7F2E09E012F5F3F4FD90101900D921F
:103050008A95E1F71092750210927602109277022B
:10306000109278028B819C81892B022FF32E81157F
:1030700081F080916E0290916F0245D4AC019091E5
:1030800071029115A1F1809135018417150608F49C
:103090003BC08D819E81892B89F080916C0290913B
:1030A0006D0231D4AC0190917002911509F45AC0AF
:1030B000809131018417150608F462C0602F7F2DBE
:1030C00083E792E04ED3811104C083E792E09DDF55
:1030D000811175DF86E0E02FFF2DA3E7B2E00190BC
:1030E0000D928A95E1F72696E5E00C947B252091D8
:1030F00036018AE0289F900111242417350748F6ED
:103100009F5F9093710202C09F3FD1F71B81111501
:1031100051F027DE91E011160CF09FEF899F802D72
:103120001124809375021C81111551F01ADE91E073
:1031300011160CF09FEF899F802D11248093760249
:1031400080917502811509F4A4CF109176021115B2
:1031500009F49FCFF8DD80937502812FF4DD809311
:10316000760297CF209132018AE0289F90011124A6
:103170002417350708F0A2CF9F5F9093700202C01A
:103180009F3FD1F71D81111551F02CDE91E01116F2
:103190000CF09FEF899F802D1124809377028E8100
:1031A000182F811551F01EDE91E011160CF09FEFE3
:1031B000899F802D11248093780280917702811558
:1031C00009F47CCF90917802192F911509F476CFEC
:1031D000BADD80937702812FB6DD809378026ECFBF
:1031E000DC01ED91FD9184913196FE93EE9308956B
:1031F000A0E0B0E0EEEFF8E10C945B25E82FF0E002
:10320000E458FC4F9491B92E282F269526952695A3
:1032100030E0F901E45EFB4FE4908770F12C082E5A
:1032200002C0F594E7940A94E2F7F901E45FFB4FDA
:10323000C490D12C082E02C0D594C7940A94E2F70A
:1032400024503C4FF901049110E002C015950795F8
:103250008A95E2F7C62FD0E0E0FC25C0C0FE06C08C
:1032600086EE0E94D404CE01009759F5BE018B2D45
:103270000E944505CE01009761F5C0FC32C0E0FE1A
:1032800006C081EE0E941705CE010097C1F500FF30
:1032900005C08CE20E945B052097C9F5CDB7DEB76B
:1032A000E9E00C94772581EE0E94D404CE010097CA
:1032B000A9F2EFE9FFE03197F1F700C000000197B4
:1032C000F6CFEFE9FFE03197F1F700C0000001977A
:1032D000CBCFEFE9FFE03197F1F700C00000019795
:1032E000CACF86EE0E941705CE01009741F2EFE9A2
:1032F000FFE03197F1F700C000000197F6CFEFE94A
:10330000FFE03197F1F700C000000197BECF8FE9D1
:103310009FE00197F1F700C000002197BDCFA0E02A
:10332000B0E0E5E9F9E10C945B258C017B01B42E5A
:10333000C701F80109958130A0F009F058C0C70114
:10334000F8010995C82F813089F4C701F801099562
:103350000E945B058B2D90E0009709F040C0C111E1
:10336000E7CFCDB7DEB7E9E00C947725823031F4B2
:10337000C701F80109950E94D404ECCF833031F4E1
:10338000C701F80109950E941705E4CF843011F7B1
:10339000C701F8010995C82FC12CD12CDAE08C2F78
:1033A0008053990B8A30910568F0C114D10491F2D1
:1033B000EFE9FFE03197F1F700C0000081E0C81AA3
:1033C000D108F3CFDC9D9001DD9D300D1124820FDB
:1033D000931F6C01C701F8010995C82FE0CFEFE9F1
:1033E000FFE03197F1F700C000000197B5CF6B2DDA
:1033F000FFDE9ECF60E0FCCE982F9F709A509630F3
:1034000010F0805DF7CF895AFDCFA2E0B0E0EBE08D
:10341000FAE10C946225462F89839A83BE016F5F7F
:103420007F4F80EF98E17BDF2296E2E00C947E25CF
:103430000F931F93CF93DF93C42FD22FFC0185816D
:103440008115C9F040937B02DFD28093790290937B
:103450007A028C2F805E883048F481E0C1FD84E0E0
:10346000C0FD880FC2FD82950E946205DF91CF9159
:103470001F910F91089510917B02141333C0809116
:10348000790290917A023FD2883C910558F5CD2F70
:10349000C05E1D17C1F0812F805E883048F481E046
:1034A00011FD84E010FD880F12FD82950E946705D2
:1034B000C83048F481E0D1FD84E0D0FD880FD2FD12
:1034C00082950E946205802F0E945B0581E0D1FDFC
:1034D00084E0D0FD880FD2FD8295C83038F60E9476
:1034E0006705C4CF8C2F805E883008F0BFCF81E0A5
:1034F000C1FD84E0C0FD880FC2FD8295F0CF0F931F
:10350000FC01CB01E851FC47E730F10588F5E05CB0
:10351000F94D0C944C2506E221EE41EE6AE17CE780
:1035200087DF80E00F91089507E225EE45EE6BE11D
:103530007CE7F6CF06E221EE40EE68E17CE7F0CFD3
:1035400007E225EE44EE69E17CE7EACF06E221EEF0
:1035500042EE6CE17CE7E4CF07E225EE46EE6DE15A
:103560007CE7DECF08E221E045EE6EE17CE7D8CFD4
:10357000FB018581811110927B0281E0D3CF809382
:103580008102909382020895089508950E9407127F
:10359000811103C080917C020895E0918102F09135
:1035A0008202309739F00190F081E02D309711F0D0
:1035B0000995089580E00895E9CF0895E09181028A
:1035C000F0918202309731F00280F381E02D309744
:1035D00009F009950895E0918102F09182023097F7
:1035E00059F026813781232B39F022E0DC012C931E
:1035F0000680F781E02D09950895A3E0B0E0E3E0AF
:10360000FBE10C94622520917F0230918002281703
:103610003907B1F080937F0290938002E09181029C
:10362000F0918202309761F00084F185E02D3097AF
:1036300039F023E029838A839B83CE010196099583
:103640002396E2E00C947E25A3E0B0E0EAE2FBE101
:103650000C94622520917D0230917E022817390753
:10366000B1F080937D0290937E02E0918102F0910F
:103670008202309761F00084F185E02D309739F0B7
:1036800024E029838A839B83CE01019609952396A2
:10369000E2E00C947E2540910001509101019A01D5
:1036A0002E5F3F4F485F5F4F80E0F90190812F5FB1
:1036B0003F4F91118F5F42175307B9F70895811556
:1036C00091F02091000130910101F9013296285FBB
:1036D0003F4F9081981731F03196E217F307C9F701
:1036E00080E0089581E008959C01FC01329680E01D
:1036F0009FEF4081461759F031969F3F19F44111D1
:1037000001C0982F8F5F8630A1F79F3F09F408957D
:10371000290F311D97FD3A95F90162830895FC0147
:10372000329608962191261302C0DF011E92E817F7
:10373000F907C1F70895682F809100019091010168
:10374000D3CF682F8091000190910101E8CFE091E3
:103750000001F0910101329686E011928A95E9F715
:103760000895DC01FB0111969C91119781819813BA
:1037700022C012968C911297811519F092818913AB
:103780001AC013968C911397811519F093818913A0
:1037900012C015968C911597811519F09581891392
:1037A0000AC014969C91911521F081E0248129137F
:1037B00003C080E001C081E0817008950895FECFCC
:1037C00008958F5F80933A016091370170913801BD
:1037D0008091390190913A01F2CF83E080933A01D0
:1037E00060913701709138018091390190913A01CF
:1037F000E6CFE7CF089581E080933A0160913701E9
:10380000709138018091390190913A01D8CFF3CF6E
:10381000089591E0811101C090E090933901609189
:103820003701709138018091390190913A01C7CFE9
:10383000809139010895809338016091370170912A
:1038400038018091390190913A01B9CF80913801C6
:10385000089580933701609137017091380180910C
:10386000390190913A01ABCF8091370108950895C5
:103870000895FECF089508950895F9CF08950F9300
:103880001F93CF93DF93F7DF0E947E11F5DF03E8EC
:1038900012E0C0E0D0E08C2F0E948F10F8018193DD
:1038A0008F0191E0811101C090E0D92BCF5FC8302A
:1038B00091F78D2FDF91CF911F910F910895E82FF0
:1038C000F0E0ED57FD4F808190E021E030E002C054
:1038D000220F331F6A95E2F72823392381E0232B37
:1038E00009F480E0089541110DC0E82FF0E0ED5794
:1038F000FD4F21E001C0220F6A95EAF720958081F3
:10390000282320830895CF93DF93EC017DD08C1B77
:103910009D0BDF91CF910895EF92FF920F931F932C
:103920007B018C017DD09701A801621B730B840B76
:10393000950B1F910F91FF90EF90089585B78068C8
:1039400085BF85B7806885BF08951F921FB61F92F7
:1039500011248F939F93AF93BF9380918B0281111A
:1039600013C08091B7029091B802A091B902B091B2
:10397000BA024196A11DB11D8093B7029093B8027F
:10398000A093B902B093BA02BF91AF919F918F916A
:103990001F901FBE1F9018958091BF02843031F197
:1039A0000E945C0410928B0288E190E020E40FB644
:1039B000F894A895809360000FBE2093600083B7B1
:1039C000817F846083BF83B7816083BF789488954B
:1039D00083B78E7F83BF0FB6F894A895809160005F
:1039E000886180936000109260000FBE08950E946D
:1039F0007C070C94600482E084BD93E095BD9AEF4F
:103A000097BD80936E0008952FB7F8948091B70208
:103A10009091B802A091B902B091BA022FBF089557
:103A20002FB7F8946091B7027091B8028091B902F3
:103A30009091BA022FBF089578941F921FB61F92DB
:103A400011248F939F93AF93BF938091B70290916E
:103A5000B802A091B902B091BA020196A11DB11DA0
:103A60008093B7029093B802A093B902B093BA02C0
:103A7000BF91AF919F918F911F901FBE1F9018957E
:103A800087E797E7809300089093010888E19AE020
:103A90000FB6F894A895809360000FBE90936000D5
:103AA000FFCF88E19AE00FB6F894A8958093600064
:103AB0000FBE90936000FFCF8EE14A9B02C0815001
:103AC000E1F74A9BFECF08955A9880E28A95F1F774
:103AD0005A9A0895FC018BE08A95F1F728E080E07E
:103AE00090E031E040E14A95F1F7880F4A9B02C02F
:103AF0008160932742E04A95F1F7000040E14A9542
:103B0000F1F7215079F720E12A95F1F729B132E058
:103B10003A95F1F7000030E13A95F1F731E022FDF6
:103B200093272081920F90830895A1E0B0E0EAE905
:103B3000FDE1C4C719828C017C01E60EF11CBCDFDB
:103B4000CE010196C7DFF80181938F01EE15FF05C5
:103B5000B1F781E09981911180E02196E6E0CAC732
:103B6000529A5A9A089552985A9AEA9AE9E6F0E0D7
:103B700080818F7C808308956150770B91E001C034
:103B8000990F6A95EAF7692F90E021E0611108C06A
:103B9000911591F05A9A80E28A95F1F75A98089512
:103BA000362F382339F05A9A922730E23A95F1F7B6
:103BB0006695ECCF5A98F9CF5A98EDCFFF920F93B4
:103BC0001F93CF93DF93EC018C01060F111D899198
:103BD000F82E7ADF68E08F2DCFDFC017D107B9F755
:103BE000CDB7DEB7E5E087C71F920F920FB60F92F1
:103BF00011240F931F932F933F934F935F936F93D2
:103C00007F938F939F93AF93BF93EF93FF93CF9344
:103C1000DF930F92CDB7DEB719824EDFCE0101964A
:103C200059DF082F069506950695282F22952570B1
:103C3000902F9570920F292F237096959695920F3D
:103C4000982797708981892B09F055C0043008F0B6
:103C500052C080E18A95F1F75A9A529A82E08A9589
:103C6000F1F700C05A9888E0089F80011124D8011C
:103C7000A95EBE4F1696ED91FD911897309791F081
:103C80006091C5017091C60114962D913D91260F4A
:103C9000371F15978D919D91680F791F4C91139740
:103CA0008C910995F801E95EFE4F6381611549F039
:103CB0002091C5013091C60184819581820F931FA7
:103CC0007DDF02DF80E18A95F1F75A9852985A9A7F
:103CD00080E18A95F1F7F801E95EFE4F6081611598
:103CE00049F02091C5013091C60181819281820FF6
:103CF000931F1BDFE1DE0F90DF91CF91FF91EF91DA
:103D0000BF91AF919F918F917F916F915F914F91F3
:103D10003F912F911F910F910F900FBE0F901F9009
:103D200018950F931F93CF93DF93EC0104970CF03A
:103D30005EC0F894529A5A9885E08A95F1F700008F
:103D40009C2F969595708C2F8570980F892F837076
:103D500096959695292F93E0CC0FDD1F9A95E1F764
:103D6000280F822F8C2B082FAFDE00C068E0802F39
:103D700003DF80E18A95F1F752985A9A4A9B30C046
:103D800087E090E04A992EC0FE01E95EFE4F638114
:103D9000611559F02091C5013091C601848195814A
:103DA000820F931FC2DE8115F9F086DE80E28A95CC
:103DB000F1F75A98529A80E18A95F1F7C95EDE4F81
:103DC0006881611549F02091C5013091C601898152
:103DD0009A81820F931FF2DE77DE789481E008C02B
:103DE00000C0CCCF019749F4529A5A9A789480E057
:103DF000DF91CF911F910F91089500C0C3CF089517
:103E00009B01BA019091BF029430D9F48F708093D6
:103E1000E9009FEF8091E80085FD06C085ED8A9559
:103E2000F1F700009150B1F78091E80085FF09C0DB
:103E300040E050E0C901B1D18091E8008E778093D5
:103E4000E800089543E050E0BC0182E0D9CF46E0AD
:103E500050E0BC0182E0D4CFCF93DF93EC01E8DCEB
:103E600048E050E0BE0181E0CBDF88E0FE01ACE835
:103E7000B2E001900D928A95E1F7DF91CF9108951C
:103E80008091BE02811107C016D366D38091E200F3
:103E900084608093E20008951092BE020895ABDC26
:103EA00081E0B7CC6091BB0281E0611101C080E08C
:103EB00094CC9091BF0281E0943009F080E0609151
:103EC000BB0297CC42E061EC81E071D242E261EC4E
:103ED00082E06DD29091BF0281E0943009F080E0E1
:103EE0006091BB026ECC8091C102893081F148F4AF
:103EF000823009F496C0833009F457C0813041F014
:103F000008958A3009F480C08B3009F468C00895A0
:103F10008091C002813A09F047C08091E800877F14
:103F20008093E8008091C4029091C502892B59F0DA
:103F300060E080E090E070E07DD18091E8008B77D8
:103F40008093E800089568E08CE892E0F4CF8091D7
:103F5000C002813249F58091C4029091C502029756
:103F600018F58091E800877F8093E8008091E80051
:103F700082FF16C02091F3008091F200922F0297E9
:103F800031F48091F100813011F0863019F4809184
:103F9000F10051DC8091E8008B778093E8003BC210
:103FA0008091BF028111E2CF08958091C002813AD1
:103FB000D9F78091C4029091C502892BA9F780910D
:103FC000E800877F8093E8008091E80080FFFCCFC5
:103FD0002FDC8093F1008091E8008E77DECF809116
:103FE000C002813209F78091C4029091C502892BE9
:103FF000D9F68091E800877F8093E8000CD2809109
:10400000C20207DC0C947C078091C002813261F609
:104010008091E800877F8093E800FDD18091C30202
:1040200018CC8091C002813A09F0BECF8091E8009F
:10403000877F8093E8008091E80080FFFCCF14DC4C
:10404000C8CF84B7877F84BF0FB6F894A8958091B6
:104050006000886180936000109260000FBE80E86D
:1040600090E00FB6F89480936100909361000FBECA
:10407000CECB21D271D2E2EEF0E0808184608083E9
:104080007894CDC48BE391E07ACA8091BF028530E9
:1040900029F48091BF02853011F0A9CC08957CDC11
:1040A000EEDB8115B1F38091BD02811591F35FD0F4
:1040B0000E947C07EECF08959A014091C60250916C
:1040C000C70200C0492F50E043305105C9F070F4D9
:1040D00041305105E9F14230510571F48BE390E034
:1040E00046E554E0F901408351830895413251057A
:1040F000E9F04232510519F180E090E040E0F2CF62
:10410000482F50E0813061F04230510561F0E2E526
:10411000F4E04115510581F7849190E0AF01E2CFC1
:10412000E8E4F4E0F9CFECE2F4E0F6CF61307105B9
:10413000A0F011F789E090E041E854E0D3CF61307E
:10414000710580F0C9F68BE790E043EA54E0CACFEE
:1041500082E190E041E954E0C5CF89E090E048E693
:1041600054E0C0CF84E490E04EE155E0BBCF80E165
:1041700089BD82E189BD09B400FEFDCF8091D800E0
:104180008F7D8093D8008091E00082608093E00072
:104190008091E00081FDFCCF0895AF92BF92CF9255
:1041A000DF92FF920F931F93CF93DF936C01EB018C
:1041B0008A0150D1F82E811123C00115110539F063
:1041C000F80180819181C81BD90BC80ED91EA12C82
:1041D000B12C2097A9F08091E80085FD21C0809145
:1041E000E8008E778093E80001151105A1F0F80131
:1041F000808191818A0D9B1D8083918385E0F82EBB
:104200008F2DDF91CF911F910F91FF90DF90CF9075
:10421000BF90AF9008951ED18115E9F2F82EF0CF2E
:10422000F60181916F018093F10021978FEFA81A19
:10423000B80ACFCFFC012091C6023091C7022617E1
:10424000370720F06115710569F09B0190E0211599
:10425000310571F491110CC08091E80082FF38C0E3
:1042600080E008959091E8009E779093E800EDCF6C
:104270008091BF028115C1F18530C1F18091E800C4
:1042800083FD30C08091E80082FDE6CF8091E80098
:1042900080FFDDCF8091F3004091F200582F21156F
:1042A000310519F04830510558F091E0483051057A
:1042B00009F090E04091E8004E774093E800C7CFC6
:1042C00081918093F100215031094F5F5F4FE7CF1B
:1042D0008091BF02811541F0853041F08091E80066
:1042E00083FFBACF81E0089582E0089583E00895C6
:1042F000FC012091C6023091C7022617370720F033
:104300006115710569F09B0190E02115310571F48B
:1043100091110CC08091E80082FF39C080E00895BF
:104320008091E8008E778093E800EDCF8091BF0206
:104330008115C9F18530C9F18091E80083FD31C054
:104340008091E80082FDE6CF8091E80080FFDDCF1C
:104350008091F3004091F200582F2115310519F09A
:104360004830510558F091E04830510509F090E08F
:104370008091E8008E778093E800C7CF8491809386
:10438000F1003196215031094F5F5F4FE6CF8091A8
:10439000BF02811541F0853041F08091E80083FF34
:1043A000B9CF81E0089582E0089583E00895982FC1
:1043B000973028F08F708093E90081E00895909302
:1043C000E900242F762F50E0981731F07091EC001F
:1043D0002091ED005091F00021FD02C09F5FE8CFD9
:1043E0003091EB003E7F3093EB003091ED003D7F4C
:1043F0003093ED003091EB0031603093EB0070931F
:10440000EC002093ED005093F0002091EE0027FD8A
:10441000E5CF80E008958091C00287FF13C08091AE
:10442000E80082FF06C08091E8008B778093E80067
:1044300008958091BF028111F2CF08958091BF024B
:104440008115D9F38091E80080FFF8CF8091E800D2
:104450008E77ECCF2091E4003091E50095E6A9013C
:104460002091EC00822F817020FF06C08091E8002F
:1044700080FF06C080E008952091E80022FD1AC068
:104480008091BF02811589F0853089F08091EB0021
:1044900085FD0FC02091E4003091E50042175307DD
:1044A000F9F29150E1F684E0089582E0089583E006
:1044B000089581E008955FD066D0E0EEF0E080815D
:1044C00081608083E8ED80818F77808319BCA7EDC0
:1044D000B0E08C918E7F8C9380818F7E8083109250
:1044E000BE020895CF93DF9346D04DD0C8EDD0E003
:1044F00088818F77888388818068888388818F7D91
:10450000888319BC1092BF021092BB021092BD02A8
:104510001092BC02E0EEF0E080818B7F8083888186
:104520008160888342E060E080E041DFE1EEF0E01E
:1045300080818E7F8083E2EE8081816080838081B4
:1045400088608083E0EE80818E7F808388818061B7
:104550008883DF91CF910895E8EDF0E080818F7E30
:104560008083E7ED80818160808384E082BF81E089
:104570008093BE02B7CFE8EDF0E080818E7F80832C
:104580001092E20008951092DA001092E10008956E
:104590001F920F920FB60F9211242F933F934F93B8
:1045A0005F936F937F938F939F93AF93BF93EF939B
:1045B000FF938091E10082FF0AC08091E20082FFB8
:1045C00006C08091E1008B7F8093E10027D280912B
:1045D000DA0080FF18C08091D80080FF14C080915D
:1045E000DA008E7F8093DA008091D90080FF8FC03F
:1045F00080E189BD82E189BD09B400FEFDCF81E083
:104600008093BF023DDC8091E10080FF18C0809163
:10461000E20080FF14C08091E2008E7F8093E20070
:104620008091E20080618093E2008091D8008062F6
:104630008093D80019BC85E08093BF0233DC809161
:10464000E10084FF28C08091E20084FF24C080E163
:1046500089BD82E189BD09B400FEFDCF8091D800FB
:104660008F7D8093D8008091E1008F7E8093E10060
:104670008091E2008F7E8093E2008091E200816071
:104680008093E2008091BB02811509F445C084E06B
:104690008093BF020EDC8091E10083FF27C08091F0
:1046A000E20083FF23C08091E100877F8093E100D7
:1046B00082E08093BF021092BB028091E1008E7F66
:1046C0008093E1008091E2008E7F8093E2008091F0
:1046D000E20080618093E20042E060E080E067DE1B
:1046E0008091F00088608093F000D9DBFF91EF911A
:1046F000BF91AF919F918F917F916F915F914F91FA
:104700003F912F910F900FBE0F901F90189519BCDD
:104710001092BF02C1DB77CF8091E30087FF02C018
:1047200083E0B6CF81E0B4CF1F920F920FB60F9205
:1047300011241F932F933F934F935F936F937F9316
:104740008F939F93AF93BF93CF93DF93EF93FF9399
:10475000E9EEF0E080811091EC008F7010FB1127E2
:1047600017F9182B1082C0EFD0E08881877F8883EB
:1047700078941CD0E9EEF0E010828881886088830C
:104780001F701083FF91EF91DF91CF91BF91AF9197
:104790009F918F917F916F915F914F913F912F9159
:1047A0001F910F900FBE0F901F901895AAE2B0E0D6
:1047B000EBEDF3E286C180EC92E0FC0101962091E2
:1047C000F100208322E0883C9207B9F78CDB8091CE
:1047D000E80083FF37C08091C0029091C1029A30F7
:1047E00088F5E92FF0E0E95BF94D56C1803889F092
:1047F000823841F58091C4028F70873018F580931C
:10480000E9008091EB0085FB882780F91092E90090
:1048100006C08091BD02880F9091BC02892B9091B7
:10482000E800977F9093E8008093F1001092F100E8
:104830008091E8008E7722C0811115C08091C2025C
:10484000813001F18091E80083FF0AC08091E80087
:10485000877F8093E8008091EB0080628093EB007B
:10486000AA96E3E04AC1823069F78091C2028115BD
:1048700079F01092E9008091E800877F8093E8004A
:10488000CADDE0CF933009F080E08093BD02F1CF24
:104890008091C4028F70282F2150263098F6809383
:1048A000E9002091EB0020FFE4CF933031F48091B8
:1048B000EB0080628093EB00DCCF9091EB00906185
:1048C0009093EB0021E001C0220F8A95EAF7209334
:1048D000EA001092EA008091EB008860EBCF811132
:1048E000B1CF8091C2028F77182F8091E30080783A
:1048F000812B8093E3008091E800877F8093E8001C
:104900008ADD8091E80080FFFCCF8091E300806821
:104910008093E30083E0111101C082E08093BF0225
:1049200091CF8058823008F08DCF8091C202909153
:10493000C3028C3D23E0920789F583E08A838AE2F3
:1049400089834FB7F894DE01139620E03EE051E2F0
:10495000E32FF0E050935700849120FF03C082952D
:104960008F703F5F8F708A30B8F0895C8D931D9295
:104970002F5F243169F74FBF8091E800877F8093D4
:10498000E8006AE270E0CE01019654DC8091E80014
:104990008B778093E80056CF805DE8CF6091C402AA
:1049A0007091C502AE014F5F5F4F86DBBC01892B62
:1049B00009F448CF9091E800977F9093E8008981AF
:1049C0009A8196DCE3CF803809F03CCF8091E800F3
:1049D000877F8093E8008091BB028093F10028CF0D
:1049E000811130CF9091C202923008F02BCF80918C
:1049F000E800877F8093E8009093BB020CDD8091F4
:104A0000BB02811529F084E08093BF025BDA1ACFE4
:104A10008091E30087FDF7CF81E0F6CF0895CF9333
:104A20008091BF02811591F08091E900C091EC0066
:104A30008F70C0FBCC27C7F9C82B1092E90080917A
:104A4000E80083FDB3DECF70C093E900CF910895F5
:104A500032DD1092BF020895E8EDF0E080818061C0
:104A600080838AE18A95F1F700C08091D900817036
:104A7000089597FB072E16F4009406D077FD08D012
:104A800048D007FC05D03EF4909581959F4F08953E
:104A9000709561957F4F0895EE0FFF1F0590F4917B
:104AA000E02D09942F923F924F925F926F927F92E6
:104AB0008F929F92AF92BF92CF92DF92EF92FF922E
:104AC0000F931F93CF93DF93CDB7DEB7CA1BDB0BDA
:104AD0000FB6F894DEBF0FBECDBF09942A8839887F
:104AE00048885F846E847D848C849B84AA84B98486
:104AF000C884DF80EE80FD800C811B81AA81B98192
:104B0000CE0FD11D0FB6F894DEBF0FBECDBFED01A5
:104B10000895AA1BBB1B51E107C0AA1FBB1FA61704
:104B2000B70710F0A61BB70B881F991F5A95A9F756
:104B300080959095BC01CD010895FB01DC0104C076
:104B40008D910190801921F441505040C8F7881B85
:104B5000990B0895FB01DC0102C001900D924150B8
:104B60005040D8F70895F999FECF92BD81BDF89ACB
:104B7000992780B50895A8E1B0E042E050E020C058
:104B8000262FF999FECF92BD81BDF89A019700B406
:104B9000021639F01FBA20BD0FB6F894FA9AF99AA6
:104BA0000FBE08950396272FECDFEADF252FE9DFFC
:104BB000242FE7CF0196272FE4DFE2CFDC01CB01E2
:104BC000FC01F999FECF06C0F2BDE1BDF89A31961D
:104BD00000B40D9241505040B8F70895F894FFCFBB
:104BE000DF02E502E802EB02EE02F102F402A705A1
:104BF000A705DE05DE0535065106CF05CF055506AE
:104C0000C706D406D4061F142A142E1431143314E4
:104C1000351437143914241693162C16F615FA1574
:104C20003016FE15341640160A168C160E1644164B
:104C3000121648166D1616164C1674161C165216B9
:104C40005A160216381606163C1620165616641604
:104C50007D168A16F01528169A16331738173A1744
:104C60003F174F174F174F174F174F174F174F1724
:104C70004F174117451748174D175C1762176617EE
:104C80009A1AA01A8B1A941AA61AAC1AB21AF623F8
:104C90001C2422241C2422246F2491242224E32473
:024CA000F024FE
:104CA2003402C6F7F6F5F4313332369391909466B6
:104CB200973435FFFFFF01000000010000000000F3
:104CC20000000401000000040500000000000028AC
:104CD2000850011E0A140100000100261C2C1FFFAF
:104CE2001E271F221FF4F5F6F7C69336323331978B
:104CF200669490913534FFFFFFE200E900EA00B5C7
:104D020000B600B700CD008301CC008A0192019465
:104D1200012102230224022502260227022A02B3CB
:104D220000B4006F0070009F01CB019F02A002E25D
:104D320000E900EA00B500B600B700CD008301CC5F
:104D4200008A0192019401210223022402250226F3
:104D52000227022A02B300B4006F0070009F01CB49
:084D6200019F02A002520200B1
:00000001FF
